{
  "contractName": "CreateDeployServiceAgreement",
  "abi": [
    {
      "anonymous": false,
      "inputs": [
        {
          "indexed": false,
          "name": "_newContract",
          "type": "address"
        },
        {
          "indexed": false,
          "name": "actionTo",
          "type": "address"
        },
        {
          "indexed": false,
          "name": "weiAmount",
          "type": "uint256"
        }
      ],
      "name": "NewContract",
      "type": "event"
    },
    {
      "constant": false,
      "inputs": [
        {
          "name": "_depositor",
          "type": "address"
        },
        {
          "name": "_requestAmount",
          "type": "uint256"
        }
      ],
      "name": "init",
      "outputs": [],
      "payable": false,
      "stateMutability": "nonpayable",
      "type": "function"
    }
  ],
  "bytecode": "0x608060405234801561001057600080fd5b50610b29806100206000396000f3fe608060405260043610610041576000357c0100000000000000000000000000000000000000000000000000000000900463ffffffff168063399ae72414610046575b600080fd5b34801561005257600080fd5b5061009f6004803603604081101561006957600080fd5b81019080803573ffffffffffffffffffffffffffffffffffffffff169060200190929190803590602001909291905050506100a1565b005b60008233836100ae6101e1565b808473ffffffffffffffffffffffffffffffffffffffff1673ffffffffffffffffffffffffffffffffffffffff1681526020018373ffffffffffffffffffffffffffffffffffffffff1673ffffffffffffffffffffffffffffffffffffffff1681526020018281526020019350505050604051809103906000f08015801561013a573d6000803e3d6000fd5b5090507fdfe0cf1413ec0c3906692b73b0bd957fe4dd59ba02e2b66879622fc3378dd5df818484604051808473ffffffffffffffffffffffffffffffffffffffff1673ffffffffffffffffffffffffffffffffffffffff1681526020018373ffffffffffffffffffffffffffffffffffffffff1673ffffffffffffffffffffffffffffffffffffffff168152602001828152602001935050505060405180910390a1505050565b60405161090c806101f28339019056fe608060405234801561001057600080fd5b5060405160608061090c8339810180604052606081101561003057600080fd5b81019080805190602001909291908051906020019092919080519060200190929190505050826000806101000a81548173ffffffffffffffffffffffffffffffffffffffff021916908373ffffffffffffffffffffffffffffffffffffffff16021790555081600160006101000a81548173ffffffffffffffffffffffffffffffffffffffff021916908373ffffffffffffffffffffffffffffffffffffffff160217905550806002819055506000600360006101000a81548160ff0219169083151502179055505050506108028061010a6000396000f3fe608060405260043610610083576000357c0100000000000000000000000000000000000000000000000000000000900463ffffffff168063091de0211461008857806313ee6a731461009257806361fb38791461009c578063bf1f5044146100a6578063c1cfb99a146100fd578063e8fd984414610128578063ea8a1af01461017f575b600080fd5b610090610189565b005b61009a6103d4565b005b6100a461054e565b005b3480156100b257600080fd5b506100bb6106ce565b604051808273ffffffffffffffffffffffffffffffffffffffff1673ffffffffffffffffffffffffffffffffffffffff16815260200191505060405180910390f35b34801561010957600080fd5b506101126106f8565b6040518082815260200191505060405180910390f35b34801561013457600080fd5b5061013d610717565b604051808273ffffffffffffffffffffffffffffffffffffffff1673ffffffffffffffffffffffffffffffffffffffff16815260200191505060405180910390f35b610187610740565b005b600160009054906101000a900473ffffffffffffffffffffffffffffffffffffffff1673ffffffffffffffffffffffffffffffffffffffff163373ffffffffffffffffffffffffffffffffffffffff161415156101e557600080fd5b60011515600360009054906101000a900460ff16151514151561020757600080fd5b600160009054906101000a900473ffffffffffffffffffffffffffffffffffffffff1673ffffffffffffffffffffffffffffffffffffffff166108fc3073ffffffffffffffffffffffffffffffffffffffff16319081150290604051600060405180830381858888f19350505050158015610286573d6000803e3d6000fd5b507f8d2fd183a6e84769286751c06f99f5cbf4026c1b3c92dda513499b6570923c9f600160009054906101000a900473ffffffffffffffffffffffffffffffffffffffff166000809054906101000a900473ffffffffffffffffffffffffffffffffffffffff16604051808373ffffffffffffffffffffffffffffffffffffffff1673ffffffffffffffffffffffffffffffffffffffff1681526020018273ffffffffffffffffffffffffffffffffffffffff1673ffffffffffffffffffffffffffffffffffffffff16815260200180602001828103825260198152602001807f746869735f636f6e74726163745f69735f436f6d706c65746500000000000000815250602001935050505060405180910390a16000809054906101000a900473ffffffffffffffffffffffffffffffffffffffff1673ffffffffffffffffffffffffffffffffffffffff16ff5b6000809054906101000a900473ffffffffffffffffffffffffffffffffffffffff1673ffffffffffffffffffffffffffffffffffffffff163373ffffffffffffffffffffffffffffffffffffffff1614151561042f57600080fd5b6002543414151561043f57600080fd5b60003490507f2da466a7b24304f47e87fa2e1e5a81b9831ce54fec19055ce277ca2f39ba42c43382604051808373ffffffffffffffffffffffffffffffffffffffff1673ffffffffffffffffffffffffffffffffffffffff1681526020018281526020019250505060405180910390a17f4ecf476b30acdf798948512a42f0206456d29329ada3ef02636d6e91d123058933604051808273ffffffffffffffffffffffffffffffffffffffff1673ffffffffffffffffffffffffffffffffffffffff168152602001806020018281038252601d8152602001807f61677265655f75706f6e5f73657276696365735f64656c6976657265640000008152506020019250505060405180910390a150565b6000809054906101000a900473ffffffffffffffffffffffffffffffffffffffff1673ffffffffffffffffffffffffffffffffffffffff163373ffffffffffffffffffffffffffffffffffffffff161415156105a957600080fd5b6001600360006101000a81548160ff0219169083151502179055507f962b312a4ad83c49fdb0c730a5c328ccd4f70dff021d13e014f7562cc3758a1d600360009054906101000a900460ff16604051808215151515815260200191505060405180910390a17f4ecf476b30acdf798948512a42f0206456d29329ada3ef02636d6e91d1230589600160009054906101000a900473ffffffffffffffffffffffffffffffffffffffff16604051808273ffffffffffffffffffffffffffffffffffffffff1673ffffffffffffffffffffffffffffffffffffffff168152602001806020018281038252601f8152602001807f77697468647261775f616e645f7465726d696e6174655f636f6e7472616374008152506020019250505060405180910390a1565b6000600160009054906101000a900473ffffffffffffffffffffffffffffffffffffffff16905090565b60003073ffffffffffffffffffffffffffffffffffffffff1631905090565b60008060009054906101000a900473ffffffffffffffffffffffffffffffffffffffff16905090565b600160009054906101000a900473ffffffffffffffffffffffffffffffffffffffff1673ffffffffffffffffffffffffffffffffffffffff163373ffffffffffffffffffffffffffffffffffffffff1614151561079c57600080fd5b6000809054906101000a900473ffffffffffffffffffffffffffffffffffffffff1673ffffffffffffffffffffffffffffffffffffffff16fffea165627a7a72305820df7f3be8bea43604997c02ac44e3b12db5d812c6c7f12f9e6ff2c7cf499c130f0029a165627a7a723058203800de6e853b301b6de4750084d7eabc9e8cf27ec36af29a96617c15881325360029",
  "source": "pragma solidity >=0.4.0<0.6.0;\n\nimport \"./serviceAgreement.sol\";\n\ncontract CreateDeployServiceAgreement {\n    event NewContract(address _newContract,address actionTo, uint256 weiAmount);\n\n    function init(address payable _depositor, uint256 _requestAmount) public {\n        address _newContract = address(new ServiceAgreement(_depositor, msg.sender, _requestAmount));\n        emit NewContract(_newContract, _depositor, _requestAmount);\n    }\n}\n",
  "sourcePath": "/Users/Zack/Code/amber-contracts/contracts/Efactory.sol",
  "compiler": {
    "name": "solc",
    "version": "0.5.0+commit.1d4f565a.Emscripten.clang"
  },
  "schemaVersion": "3.0.1",
  "updatedAt": "2019-03-14T02:26:17.206Z",
  "devdoc": {
    "methods": {}
  },
  "userdoc": {
    "methods": {}
  }
}