{
  "contractName": "CreateDeployServiceAgreement",
  "abi": [
    {
      "anonymous": false,
      "inputs": [
        {
          "indexed": false,
          "name": "_newEscrow",
          "type": "address"
        }
      ],
      "name": "NewContract",
      "type": "event"
    },
    {
      "constant": false,
      "inputs": [
        {
          "name": "_depositor",
          "type": "address"
        }
      ],
      "name": "create_and_deploy_service_agreement",
      "outputs": [],
      "payable": false,
      "stateMutability": "nonpayable",
      "type": "function"
    }
  ],
  "bytecode": "0x608060405234801561001057600080fd5b50610b33806100206000396000f3fe608060405260043610610041576000357c0100000000000000000000000000000000000000000000000000000000900463ffffffff168063e987dac914610046575b600080fd5b34801561005257600080fd5b506100956004803603602081101561006957600080fd5b81019080803573ffffffffffffffffffffffffffffffffffffffff169060200190929190505050610097565b005b600081336100a3610192565b808373ffffffffffffffffffffffffffffffffffffffff1673ffffffffffffffffffffffffffffffffffffffff1681526020018273ffffffffffffffffffffffffffffffffffffffff1673ffffffffffffffffffffffffffffffffffffffff16815260200192505050604051809103906000f080158015610128573d6000803e3d6000fd5b5090507f387ea218537e939551af33bbc2dd6c53b1fee55d377a0dce288258f972cb3a9c81604051808273ffffffffffffffffffffffffffffffffffffffff1673ffffffffffffffffffffffffffffffffffffffff16815260200191505060405180910390a15050565b604051610965806101a38339019056fe608060405234801561001057600080fd5b506040516040806109658339810180604052604081101561003057600080fd5b810190808051906020019092919080519060200190929190505050816000806101000a81548173ffffffffffffffffffffffffffffffffffffffff021916908373ffffffffffffffffffffffffffffffffffffffff16021790555080600160006101000a81548173ffffffffffffffffffffffffffffffffffffffff021916908373ffffffffffffffffffffffffffffffffffffffff1602179055506000600160146101000a81548160ff021916908315150217905550505061086d806100f86000396000f3fe60806040526004361061008e576000357c0100000000000000000000000000000000000000000000000000000000900463ffffffff16806301a44eff14610093578063091de021146100ea57806312065fe0146100f457806321a325311461011f578063262881bb146101295780637bd3789f14610180578063e3a9db1a146101c4578063ea8a1af014610229575b600080fd5b34801561009f57600080fd5b506100a8610233565b604051808273ffffffffffffffffffffffffffffffffffffffff1673ffffffffffffffffffffffffffffffffffffffff16815260200191505060405180910390f35b6100f261025d565b005b34801561010057600080fd5b50610109610421565b6040518082815260200191505060405180910390f35b610127610440565b005b34801561013557600080fd5b5061013e610569565b604051808273ffffffffffffffffffffffffffffffffffffffff1673ffffffffffffffffffffffffffffffffffffffff16815260200191505060405180910390f35b6101c26004803603602081101561019657600080fd5b81019080803573ffffffffffffffffffffffffffffffffffffffff169060200190929190505050610592565b005b3480156101d057600080fd5b50610213600480360360208110156101e757600080fd5b81019080803573ffffffffffffffffffffffffffffffffffffffff169060200190929190505050610741565b6040518082815260200191505060405180910390f35b61023161078a565b005b6000600160009054906101000a900473ffffffffffffffffffffffffffffffffffffffff16905090565b600160009054906101000a900473ffffffffffffffffffffffffffffffffffffffff1673ffffffffffffffffffffffffffffffffffffffff163373ffffffffffffffffffffffffffffffffffffffff161415156102b957600080fd5b60011515600160149054906101000a900460ff1615151415156102db57600080fd5b60003073ffffffffffffffffffffffffffffffffffffffff16319050600160009054906101000a900473ffffffffffffffffffffffffffffffffffffffff1673ffffffffffffffffffffffffffffffffffffffff166108fc3073ffffffffffffffffffffffffffffffffffffffff16319081150290604051600060405180830381858888f19350505050158015610376573d6000803e3d6000fd5b50600160009054906101000a900473ffffffffffffffffffffffffffffffffffffffff1673ffffffffffffffffffffffffffffffffffffffff167f7084f5476618d8e60b11ef0d7d3f06914655adb8793e28ff7f018d4c76d505d5826040518082815260200191505060405180910390a26000809054906101000a900473ffffffffffffffffffffffffffffffffffffffff1673ffffffffffffffffffffffffffffffffffffffff16ff5b60003073ffffffffffffffffffffffffffffffffffffffff1631905090565b6000809054906101000a900473ffffffffffffffffffffffffffffffffffffffff1673ffffffffffffffffffffffffffffffffffffffff163373ffffffffffffffffffffffffffffffffffffffff1614151561049b57600080fd5b60018060146101000a81548160ff0219169083151502179055507f962b312a4ad83c49fdb0c730a5c328ccd4f70dff021d13e014f7562cc3758a1d600160149054906101000a900460ff16604051808215151515815260200191505060405180910390a17f9aaab0a1c594f07204867020773475f547c767c437cee40ab772b04a5a7eaa4a60405180806020018281038252601f8152602001807f77697468647261775f616e645f7465726d696e6174655f636f6e74726163740081525060200191505060405180910390a1565b60008060009054906101000a900473ffffffffffffffffffffffffffffffffffffffff16905090565b6000809054906101000a900473ffffffffffffffffffffffffffffffffffffffff1673ffffffffffffffffffffffffffffffffffffffff163373ffffffffffffffffffffffffffffffffffffffff161415156105ed57600080fd5b600034905061064481600260008573ffffffffffffffffffffffffffffffffffffffff1673ffffffffffffffffffffffffffffffffffffffff1681526020019081526020016000205461082090919063ffffffff16565b600260008473ffffffffffffffffffffffffffffffffffffffff1673ffffffffffffffffffffffffffffffffffffffff168152602001908152602001600020819055508173ffffffffffffffffffffffffffffffffffffffff167f2da466a7b24304f47e87fa2e1e5a81b9831ce54fec19055ce277ca2f39ba42c4826040518082815260200191505060405180910390a27f9aaab0a1c594f07204867020773475f547c767c437cee40ab772b04a5a7eaa4a60405180806020018281038252601e8152602001807f61677265655f75706f6e5f73657276696365735f64656c69657665726564000081525060200191505060405180910390a15050565b6000600260008373ffffffffffffffffffffffffffffffffffffffff1673ffffffffffffffffffffffffffffffffffffffff168152602001908152602001600020549050919050565b600160009054906101000a900473ffffffffffffffffffffffffffffffffffffffff1673ffffffffffffffffffffffffffffffffffffffff163373ffffffffffffffffffffffffffffffffffffffff161415156107e657600080fd5b6000809054906101000a900473ffffffffffffffffffffffffffffffffffffffff1673ffffffffffffffffffffffffffffffffffffffff16ff5b600080828401905083811015151561083757600080fd5b809150509291505056fea165627a7a72305820a3eb47ca125c666ad6836014ac0df44d6f088a74feb4b64b74916b87117173350029a165627a7a723058208d6ed95930619f42be4fb7e93fc8036af84378020ceaddfaae046d5aa3762d4f0029",
  "source": "pragma solidity >=0.4.0<0.6.0;\n\nimport \"./serviceAgreement.sol\";\n\ncontract CreateDeployServiceAgreement {\n    event NewContract(address _newEscrow);\n\n    function create_and_deploy_service_agreement(address payable _depositor) public {\n        address _newEscrow = address(new ServiceAgreement(_depositor, msg.sender));\n        emit NewContract(_newEscrow);\n    }\n\n}\n",
  "sourcePath": "/Users/Zack/Code/amber-contracts/contracts/Efactory.sol",
  "compiler": {
    "name": "solc",
    "version": "0.5.0+commit.1d4f565a.Emscripten.clang"
  },
  "schemaVersion": "3.0.1",
  "updatedAt": "2019-03-09T15:51:57.935Z",
  "devdoc": {
    "methods": {}
  },
  "userdoc": {
    "methods": {}
  }
}