{
  "contractName": "EFactory",
  "abi": [
    {
      "anonymous": false,
      "inputs": [
        {
          "indexed": false,
          "name": "_newEscrow",
          "type": "address"
        }
      ],
      "name": "NewContract",
      "type": "event",
      "signature": "0x387ea218537e939551af33bbc2dd6c53b1fee55d377a0dce288258f972cb3a9c"
    },
    {
      "constant": false,
      "inputs": [
        {
          "name": "_depositor",
          "type": "address"
        }
      ],
      "name": "creator",
      "outputs": [],
      "payable": false,
      "stateMutability": "nonpayable",
      "type": "function",
      "signature": "0xfc0cdf76"
    }
  ],
  "bytecode": "0x608060405234801561001057600080fd5b50610a63806100206000396000f3fe608060405260043610610041576000357c0100000000000000000000000000000000000000000000000000000000900463ffffffff168063fc0cdf7614610046575b600080fd5b34801561005257600080fd5b506100956004803603602081101561006957600080fd5b81019080803573ffffffffffffffffffffffffffffffffffffffff169060200190929190505050610097565b005b600081336100a3610192565b808373ffffffffffffffffffffffffffffffffffffffff1673ffffffffffffffffffffffffffffffffffffffff1681526020018273ffffffffffffffffffffffffffffffffffffffff1673ffffffffffffffffffffffffffffffffffffffff16815260200192505050604051809103906000f080158015610128573d6000803e3d6000fd5b5090507f387ea218537e939551af33bbc2dd6c53b1fee55d377a0dce288258f972cb3a9c81604051808273ffffffffffffffffffffffffffffffffffffffff1673ffffffffffffffffffffffffffffffffffffffff16815260200191505060405180910390a15050565b604051610895806101a38339019056fe608060405234801561001057600080fd5b506040516040806108958339810180604052604081101561003057600080fd5b810190808051906020019092919080519060200190929190505050816000806101000a81548173ffffffffffffffffffffffffffffffffffffffff021916908373ffffffffffffffffffffffffffffffffffffffff16021790555080600160006101000a81548173ffffffffffffffffffffffffffffffffffffffff021916908373ffffffffffffffffffffffffffffffffffffffff1602179055506000600160146101000a81548160ff021916908315150217905550505061079d806100f86000396000f3fe60806040526004361061008e576000357c0100000000000000000000000000000000000000000000000000000000900463ffffffff16806301a44eff1461009357806312065fe0146100ea578063262881bb146101155780633ccfd60b1461016c57806364f65cc014610176578063e3a9db1a14610180578063ea8a1af0146101e5578063f340fa01146101ef575b600080fd5b34801561009f57600080fd5b506100a8610233565b604051808273ffffffffffffffffffffffffffffffffffffffff1673ffffffffffffffffffffffffffffffffffffffff16815260200191505060405180910390f35b3480156100f657600080fd5b506100ff61025d565b6040518082815260200191505060405180910390f35b34801561012157600080fd5b5061012a61027c565b604051808273ffffffffffffffffffffffffffffffffffffffff1673ffffffffffffffffffffffffffffffffffffffff16815260200191505060405180910390f35b6101746102a5565b005b61017e610469565b005b34801561018c57600080fd5b506101cf600480360360208110156101a357600080fd5b81019080803573ffffffffffffffffffffffffffffffffffffffff16906020019092919050505061052a565b6040518082815260200191505060405180910390f35b6101ed610573565b005b6102316004803603602081101561020557600080fd5b81019080803573ffffffffffffffffffffffffffffffffffffffff169060200190929190505050610609565b005b6000600160009054906101000a900473ffffffffffffffffffffffffffffffffffffffff16905090565b60003073ffffffffffffffffffffffffffffffffffffffff1631905090565b60008060009054906101000a900473ffffffffffffffffffffffffffffffffffffffff16905090565b600160009054906101000a900473ffffffffffffffffffffffffffffffffffffffff1673ffffffffffffffffffffffffffffffffffffffff163373ffffffffffffffffffffffffffffffffffffffff1614151561030157600080fd5b60011515600160149054906101000a900460ff16151514151561032357600080fd5b60003073ffffffffffffffffffffffffffffffffffffffff16319050600160009054906101000a900473ffffffffffffffffffffffffffffffffffffffff1673ffffffffffffffffffffffffffffffffffffffff166108fc3073ffffffffffffffffffffffffffffffffffffffff16319081150290604051600060405180830381858888f193505050501580156103be573d6000803e3d6000fd5b50600160009054906101000a900473ffffffffffffffffffffffffffffffffffffffff1673ffffffffffffffffffffffffffffffffffffffff167f7084f5476618d8e60b11ef0d7d3f06914655adb8793e28ff7f018d4c76d505d5826040518082815260200191505060405180910390a26000809054906101000a900473ffffffffffffffffffffffffffffffffffffffff1673ffffffffffffffffffffffffffffffffffffffff16ff5b6000809054906101000a900473ffffffffffffffffffffffffffffffffffffffff1673ffffffffffffffffffffffffffffffffffffffff163373ffffffffffffffffffffffffffffffffffffffff161415156104c457600080fd5b60018060146101000a81548160ff0219169083151502179055507f962b312a4ad83c49fdb0c730a5c328ccd4f70dff021d13e014f7562cc3758a1d600160149054906101000a900460ff16604051808215151515815260200191505060405180910390a1565b6000600260008373ffffffffffffffffffffffffffffffffffffffff1673ffffffffffffffffffffffffffffffffffffffff168152602001908152602001600020549050919050565b600160009054906101000a900473ffffffffffffffffffffffffffffffffffffffff1673ffffffffffffffffffffffffffffffffffffffff163373ffffffffffffffffffffffffffffffffffffffff161415156105cf57600080fd5b6000809054906101000a900473ffffffffffffffffffffffffffffffffffffffff1673ffffffffffffffffffffffffffffffffffffffff16ff5b6000809054906101000a900473ffffffffffffffffffffffffffffffffffffffff1673ffffffffffffffffffffffffffffffffffffffff163373ffffffffffffffffffffffffffffffffffffffff1614151561066457600080fd5b60003490506106bb81600260008573ffffffffffffffffffffffffffffffffffffffff1673ffffffffffffffffffffffffffffffffffffffff1681526020019081526020016000205461075090919063ffffffff16565b600260008473ffffffffffffffffffffffffffffffffffffffff1673ffffffffffffffffffffffffffffffffffffffff168152602001908152602001600020819055508173ffffffffffffffffffffffffffffffffffffffff167f2da466a7b24304f47e87fa2e1e5a81b9831ce54fec19055ce277ca2f39ba42c4826040518082815260200191505060405180910390a25050565b600080828401905083811015151561076757600080fd5b809150509291505056fea165627a7a7230582068ab0df80e180f5db5c48943b48bd79081cc50d719d42ade5082e177a24798c40029a165627a7a72305820d29f97c0f1c1ff2bdacdfc22206495e085c39bf016df298b73c6e1fc9047bdfe0029",
  "source": "pragma solidity >=0.4.0<0.6.0;\n\nimport \"./dumb.sol\";\n\ncontract EFactory {\n    event NewContract(address _newEscrow);\n\n    function creator(address payable _depositor) public {\n        address _newEscrow = address(new Dumb(_depositor, msg.sender));\n        emit NewContract(_newEscrow);\n    }\n\n}\n",
  "sourcePath": "/Users/Zack/Code/amber-contracts/contracts/Efactory.sol",
  "compiler": {
    "name": "solc",
    "version": "0.5.0+commit.1d4f565a.Emscripten.clang"
  },
  "schemaVersion": "3.0.1",
  "updatedAt": "2019-02-24T22:18:53.031Z",
  "devdoc": {
    "methods": {}
  },
  "userdoc": {
    "methods": {}
  }
}