{
  "contractName": "ServiceAgreement",
  "abi": [
    {
      "inputs": [
        {
          "name": "_depositor",
          "type": "address"
        },
        {
          "name": "_creator",
          "type": "address"
        }
      ],
      "payable": false,
      "stateMutability": "nonpayable",
      "type": "constructor"
    },
    {
      "anonymous": false,
      "inputs": [
        {
          "indexed": true,
          "name": "payee",
          "type": "address"
        },
        {
          "indexed": false,
          "name": "weiAmount",
          "type": "uint256"
        }
      ],
      "name": "Deposited",
      "type": "event"
    },
    {
      "anonymous": false,
      "inputs": [
        {
          "indexed": true,
          "name": "creator",
          "type": "address"
        },
        {
          "indexed": false,
          "name": "weiAmount",
          "type": "uint256"
        }
      ],
      "name": "Withdrawn",
      "type": "event"
    },
    {
      "anonymous": false,
      "inputs": [
        {
          "indexed": false,
          "name": "",
          "type": "string"
        }
      ],
      "name": "NextAction",
      "type": "event"
    },
    {
      "anonymous": false,
      "inputs": [
        {
          "indexed": false,
          "name": "",
          "type": "bool"
        }
      ],
      "name": "FINISHED",
      "type": "event"
    },
    {
      "constant": false,
      "inputs": [
        {
          "name": "payee",
          "type": "address"
        }
      ],
      "name": "deposit_funds",
      "outputs": [],
      "payable": true,
      "stateMutability": "payable",
      "type": "function"
    },
    {
      "constant": false,
      "inputs": [],
      "name": "agree_upon_services_delievered",
      "outputs": [],
      "payable": true,
      "stateMutability": "payable",
      "type": "function"
    },
    {
      "constant": false,
      "inputs": [],
      "name": "withdraw_and_terminate_contract",
      "outputs": [],
      "payable": true,
      "stateMutability": "payable",
      "type": "function"
    },
    {
      "constant": false,
      "inputs": [],
      "name": "cancel",
      "outputs": [],
      "payable": true,
      "stateMutability": "payable",
      "type": "function"
    },
    {
      "constant": true,
      "inputs": [],
      "name": "getBalance",
      "outputs": [
        {
          "name": "",
          "type": "uint256"
        }
      ],
      "payable": false,
      "stateMutability": "view",
      "type": "function"
    },
    {
      "constant": true,
      "inputs": [],
      "name": "seeOwner",
      "outputs": [
        {
          "name": "",
          "type": "address"
        }
      ],
      "payable": false,
      "stateMutability": "view",
      "type": "function"
    },
    {
      "constant": true,
      "inputs": [],
      "name": "seeDepositor",
      "outputs": [
        {
          "name": "",
          "type": "address"
        }
      ],
      "payable": false,
      "stateMutability": "view",
      "type": "function"
    },
    {
      "constant": true,
      "inputs": [
        {
          "name": "payee",
          "type": "address"
        }
      ],
      "name": "depositsOf",
      "outputs": [
        {
          "name": "",
          "type": "uint256"
        }
      ],
      "payable": false,
      "stateMutability": "view",
      "type": "function"
    }
  ],
  "bytecode": "0x608060405234801561001057600080fd5b506040516040806109658339810180604052604081101561003057600080fd5b810190808051906020019092919080519060200190929190505050816000806101000a81548173ffffffffffffffffffffffffffffffffffffffff021916908373ffffffffffffffffffffffffffffffffffffffff16021790555080600160006101000a81548173ffffffffffffffffffffffffffffffffffffffff021916908373ffffffffffffffffffffffffffffffffffffffff1602179055506000600160146101000a81548160ff021916908315150217905550505061086d806100f86000396000f3fe60806040526004361061008e576000357c0100000000000000000000000000000000000000000000000000000000900463ffffffff16806301a44eff14610093578063091de021146100ea57806312065fe0146100f457806321a325311461011f578063262881bb146101295780637bd3789f14610180578063e3a9db1a146101c4578063ea8a1af014610229575b600080fd5b34801561009f57600080fd5b506100a8610233565b604051808273ffffffffffffffffffffffffffffffffffffffff1673ffffffffffffffffffffffffffffffffffffffff16815260200191505060405180910390f35b6100f261025d565b005b34801561010057600080fd5b50610109610421565b6040518082815260200191505060405180910390f35b610127610440565b005b34801561013557600080fd5b5061013e610569565b604051808273ffffffffffffffffffffffffffffffffffffffff1673ffffffffffffffffffffffffffffffffffffffff16815260200191505060405180910390f35b6101c26004803603602081101561019657600080fd5b81019080803573ffffffffffffffffffffffffffffffffffffffff169060200190929190505050610592565b005b3480156101d057600080fd5b50610213600480360360208110156101e757600080fd5b81019080803573ffffffffffffffffffffffffffffffffffffffff169060200190929190505050610741565b6040518082815260200191505060405180910390f35b61023161078a565b005b6000600160009054906101000a900473ffffffffffffffffffffffffffffffffffffffff16905090565b600160009054906101000a900473ffffffffffffffffffffffffffffffffffffffff1673ffffffffffffffffffffffffffffffffffffffff163373ffffffffffffffffffffffffffffffffffffffff161415156102b957600080fd5b60011515600160149054906101000a900460ff1615151415156102db57600080fd5b60003073ffffffffffffffffffffffffffffffffffffffff16319050600160009054906101000a900473ffffffffffffffffffffffffffffffffffffffff1673ffffffffffffffffffffffffffffffffffffffff166108fc3073ffffffffffffffffffffffffffffffffffffffff16319081150290604051600060405180830381858888f19350505050158015610376573d6000803e3d6000fd5b50600160009054906101000a900473ffffffffffffffffffffffffffffffffffffffff1673ffffffffffffffffffffffffffffffffffffffff167f7084f5476618d8e60b11ef0d7d3f06914655adb8793e28ff7f018d4c76d505d5826040518082815260200191505060405180910390a26000809054906101000a900473ffffffffffffffffffffffffffffffffffffffff1673ffffffffffffffffffffffffffffffffffffffff16ff5b60003073ffffffffffffffffffffffffffffffffffffffff1631905090565b6000809054906101000a900473ffffffffffffffffffffffffffffffffffffffff1673ffffffffffffffffffffffffffffffffffffffff163373ffffffffffffffffffffffffffffffffffffffff1614151561049b57600080fd5b60018060146101000a81548160ff0219169083151502179055507f962b312a4ad83c49fdb0c730a5c328ccd4f70dff021d13e014f7562cc3758a1d600160149054906101000a900460ff16604051808215151515815260200191505060405180910390a17f9aaab0a1c594f07204867020773475f547c767c437cee40ab772b04a5a7eaa4a60405180806020018281038252601f8152602001807f77697468647261775f616e645f7465726d696e6174655f636f6e74726163740081525060200191505060405180910390a1565b60008060009054906101000a900473ffffffffffffffffffffffffffffffffffffffff16905090565b6000809054906101000a900473ffffffffffffffffffffffffffffffffffffffff1673ffffffffffffffffffffffffffffffffffffffff163373ffffffffffffffffffffffffffffffffffffffff161415156105ed57600080fd5b600034905061064481600260008573ffffffffffffffffffffffffffffffffffffffff1673ffffffffffffffffffffffffffffffffffffffff1681526020019081526020016000205461082090919063ffffffff16565b600260008473ffffffffffffffffffffffffffffffffffffffff1673ffffffffffffffffffffffffffffffffffffffff168152602001908152602001600020819055508173ffffffffffffffffffffffffffffffffffffffff167f2da466a7b24304f47e87fa2e1e5a81b9831ce54fec19055ce277ca2f39ba42c4826040518082815260200191505060405180910390a27f9aaab0a1c594f07204867020773475f547c767c437cee40ab772b04a5a7eaa4a60405180806020018281038252601e8152602001807f61677265655f75706f6e5f73657276696365735f64656c69657665726564000081525060200191505060405180910390a15050565b6000600260008373ffffffffffffffffffffffffffffffffffffffff1673ffffffffffffffffffffffffffffffffffffffff168152602001908152602001600020549050919050565b600160009054906101000a900473ffffffffffffffffffffffffffffffffffffffff1673ffffffffffffffffffffffffffffffffffffffff163373ffffffffffffffffffffffffffffffffffffffff161415156107e657600080fd5b6000809054906101000a900473ffffffffffffffffffffffffffffffffffffffff1673ffffffffffffffffffffffffffffffffffffffff16ff5b600080828401905083811015151561083757600080fd5b809150509291505056fea165627a7a72305820a3eb47ca125c666ad6836014ac0df44d6f088a74feb4b64b74916b87117173350029",
  "source": "pragma solidity >=0.4.21 <0.6.0;\n\nimport 'openzeppelin-solidity/contracts/math/SafeMath.sol';\n\ncontract ServiceAgreement{\n    //Libs\n    using SafeMath for uint256;\n    //Global\n    address payable depositor;\n    address payable creator;\n    bool finished;\n\n    //Events\n    event Deposited(address indexed payee, uint256 weiAmount);\n    event Withdrawn(address indexed creator, uint256 weiAmount);\n    event NextAction(string);\n    event FINISHED(bool);\n\n    mapping(address => uint256) private _deposits;\n\n    constructor(address payable _depositor, address payable _creator)public{\n        depositor = _depositor;\n        creator = _creator;\n        finished = false;\n    }\n\n    modifier isOwner(){\n        require(msg.sender == creator);\n        _;\n    }\n\n    modifier isDepositor(){\n        require(msg.sender == depositor);\n        _;\n    }\n\n    function deposit_funds(address payee) public payable isDepositor{\n        uint256 amount = msg.value;\n        _deposits[payee] = _deposits[payee].add(amount);\n        emit Deposited(payee, amount);\n        emit NextAction(\"agree_upon_services_delievered\");\n    }\n\n     function agree_upon_services_delievered() public payable isDepositor{\n        finished = true;\n        emit FINISHED(finished);\n        emit NextAction(\"withdraw_and_terminate_contract\");\n    }\n\n    function withdraw_and_terminate_contract() public payable isOwner {\n        require(finished == true);\n        uint256 balance = address(this).balance;\n        address(creator).transfer(address(this).balance);\n        emit Withdrawn(creator, balance);\n        selfdestruct(depositor);\n    }\n\n    function cancel() public payable isOwner{\n        selfdestruct(depositor);\n    }\n\n    function getBalance() public view returns(uint256){\n        return address(this).balance;\n    }\n\n    function seeOwner() public view returns(address){\n        return creator;\n    }\n\n    function seeDepositor() public view returns(address){\n        return depositor;\n    }\n\n    function depositsOf(address payee) public view returns (uint256) {\n        return _deposits[payee];\n    }\n}\n",
  "sourcePath": "/Users/Zack/Code/amber-contracts/contracts/serviceAgreement.sol",
  "compiler": {
    "name": "solc",
    "version": "0.5.0+commit.1d4f565a.Emscripten.clang"
  },
  "schemaVersion": "3.0.1",
  "updatedAt": "2019-03-09T15:51:57.936Z",
  "devdoc": {
    "methods": {}
  },
  "userdoc": {
    "methods": {}
  }
}