{
  "contractName": "ServiceAgreement",
  "abi": [
    {
      "inputs": [
        {
          "name": "_depositor",
          "type": "address"
        },
        {
          "name": "_creator",
          "type": "address"
        },
        {
          "name": "_requestAmount",
          "type": "uint256"
        }
      ],
      "payable": false,
      "stateMutability": "nonpayable",
      "type": "constructor"
    },
    {
      "anonymous": false,
      "inputs": [
        {
          "indexed": true,
          "name": "despositor",
          "type": "address"
        },
        {
          "indexed": false,
          "name": "weiAmount",
          "type": "uint256"
        }
      ],
      "name": "Deposited",
      "type": "event"
    },
    {
      "anonymous": false,
      "inputs": [
        {
          "indexed": true,
          "name": "creator",
          "type": "address"
        },
        {
          "indexed": false,
          "name": "weiAmount",
          "type": "uint256"
        }
      ],
      "name": "Withdrawn",
      "type": "event"
    },
    {
      "anonymous": false,
      "inputs": [
        {
          "indexed": false,
          "name": "",
          "type": "string"
        }
      ],
      "name": "NextAction",
      "type": "event"
    },
    {
      "anonymous": false,
      "inputs": [
        {
          "indexed": false,
          "name": "",
          "type": "bool"
        }
      ],
      "name": "FINISHED",
      "type": "event"
    },
    {
      "constant": false,
      "inputs": [],
      "name": "deposit_funds",
      "outputs": [],
      "payable": true,
      "stateMutability": "payable",
      "type": "function"
    },
    {
      "constant": false,
      "inputs": [],
      "name": "agree_upon_services_delievered",
      "outputs": [],
      "payable": true,
      "stateMutability": "payable",
      "type": "function"
    },
    {
      "constant": false,
      "inputs": [],
      "name": "withdraw_and_terminate_contract",
      "outputs": [],
      "payable": true,
      "stateMutability": "payable",
      "type": "function"
    },
    {
      "constant": false,
      "inputs": [],
      "name": "cancel",
      "outputs": [],
      "payable": true,
      "stateMutability": "payable",
      "type": "function"
    },
    {
      "constant": true,
      "inputs": [],
      "name": "get_balance",
      "outputs": [
        {
          "name": "",
          "type": "uint256"
        }
      ],
      "payable": false,
      "stateMutability": "view",
      "type": "function"
    },
    {
      "constant": true,
      "inputs": [],
      "name": "see_owner",
      "outputs": [
        {
          "name": "",
          "type": "address"
        }
      ],
      "payable": false,
      "stateMutability": "view",
      "type": "function"
    },
    {
      "constant": true,
      "inputs": [],
      "name": "see_depositor",
      "outputs": [
        {
          "name": "",
          "type": "address"
        }
      ],
      "payable": false,
      "stateMutability": "view",
      "type": "function"
    }
  ],
  "bytecode": "0x608060405234801561001057600080fd5b506040516060806107de8339810180604052606081101561003057600080fd5b81019080805190602001909291908051906020019092919080519060200190929190505050826000806101000a81548173ffffffffffffffffffffffffffffffffffffffff021916908373ffffffffffffffffffffffffffffffffffffffff16021790555081600160006101000a81548173ffffffffffffffffffffffffffffffffffffffff021916908373ffffffffffffffffffffffffffffffffffffffff160217905550806002819055506000600360006101000a81548160ff0219169083151502179055505050506106d48061010a6000396000f3fe608060405260043610610083576000357c0100000000000000000000000000000000000000000000000000000000900463ffffffff168063091de0211461008857806313ee6a731461009257806321a325311461009c578063bf1f5044146100a6578063c1cfb99a146100fd578063e8fd984414610128578063ea8a1af01461017f575b600080fd5b610090610189565b005b61009a61034d565b005b6100a4610476565b005b3480156100b257600080fd5b506100bb6105a0565b604051808273ffffffffffffffffffffffffffffffffffffffff1673ffffffffffffffffffffffffffffffffffffffff16815260200191505060405180910390f35b34801561010957600080fd5b506101126105ca565b6040518082815260200191505060405180910390f35b34801561013457600080fd5b5061013d6105e9565b604051808273ffffffffffffffffffffffffffffffffffffffff1673ffffffffffffffffffffffffffffffffffffffff16815260200191505060405180910390f35b610187610612565b005b600160009054906101000a900473ffffffffffffffffffffffffffffffffffffffff1673ffffffffffffffffffffffffffffffffffffffff163373ffffffffffffffffffffffffffffffffffffffff161415156101e557600080fd5b60011515600360009054906101000a900460ff16151514151561020757600080fd5b60003073ffffffffffffffffffffffffffffffffffffffff16319050600160009054906101000a900473ffffffffffffffffffffffffffffffffffffffff1673ffffffffffffffffffffffffffffffffffffffff166108fc3073ffffffffffffffffffffffffffffffffffffffff16319081150290604051600060405180830381858888f193505050501580156102a2573d6000803e3d6000fd5b50600160009054906101000a900473ffffffffffffffffffffffffffffffffffffffff1673ffffffffffffffffffffffffffffffffffffffff167f7084f5476618d8e60b11ef0d7d3f06914655adb8793e28ff7f018d4c76d505d5826040518082815260200191505060405180910390a26000809054906101000a900473ffffffffffffffffffffffffffffffffffffffff1673ffffffffffffffffffffffffffffffffffffffff16ff5b6000809054906101000a900473ffffffffffffffffffffffffffffffffffffffff1673ffffffffffffffffffffffffffffffffffffffff163373ffffffffffffffffffffffffffffffffffffffff161415156103a857600080fd5b600254341415156103b857600080fd5b60003490503373ffffffffffffffffffffffffffffffffffffffff167f2da466a7b24304f47e87fa2e1e5a81b9831ce54fec19055ce277ca2f39ba42c4826040518082815260200191505060405180910390a27f9aaab0a1c594f07204867020773475f547c767c437cee40ab772b04a5a7eaa4a60405180806020018281038252601e8152602001807f61677265655f75706f6e5f73657276696365735f64656c69657665726564000081525060200191505060405180910390a150565b6000809054906101000a900473ffffffffffffffffffffffffffffffffffffffff1673ffffffffffffffffffffffffffffffffffffffff163373ffffffffffffffffffffffffffffffffffffffff161415156104d157600080fd5b6001600360006101000a81548160ff0219169083151502179055507f962b312a4ad83c49fdb0c730a5c328ccd4f70dff021d13e014f7562cc3758a1d600360009054906101000a900460ff16604051808215151515815260200191505060405180910390a17f9aaab0a1c594f07204867020773475f547c767c437cee40ab772b04a5a7eaa4a60405180806020018281038252601f8152602001807f77697468647261775f616e645f7465726d696e6174655f636f6e74726163740081525060200191505060405180910390a1565b6000600160009054906101000a900473ffffffffffffffffffffffffffffffffffffffff16905090565b60003073ffffffffffffffffffffffffffffffffffffffff1631905090565b60008060009054906101000a900473ffffffffffffffffffffffffffffffffffffffff16905090565b600160009054906101000a900473ffffffffffffffffffffffffffffffffffffffff1673ffffffffffffffffffffffffffffffffffffffff163373ffffffffffffffffffffffffffffffffffffffff1614151561066e57600080fd5b6000809054906101000a900473ffffffffffffffffffffffffffffffffffffffff1673ffffffffffffffffffffffffffffffffffffffff16fffea165627a7a723058206090a6b64b93df264446285b94b6000492b241f8d4ce3a16a6dae9ea3638e37f0029",
  "source": "pragma solidity >=0.4.21 <0.6.0;\n\nimport 'openzeppelin-solidity/contracts/math/SafeMath.sol';\n\ncontract ServiceAgreement{\n    //Libs\n    using SafeMath for uint256;\n    //Global\n    address payable depositor;\n    address payable creator;\n    uint256 requestAmount;\n    bool finished;\n\n    //Events\n    event Deposited(address indexed despositor, uint256 weiAmount);\n    event Withdrawn(address indexed creator, uint256 weiAmount);\n    event NextAction(string);\n    event FINISHED(bool);\n\n\n    constructor(address payable _depositor, address payable _creator, uint256 _requestAmount )public{\n        depositor = _depositor;\n        creator = _creator;\n        requestAmount = _requestAmount;\n        finished = false;\n    }\n\n    modifier isOwner(){\n        require(msg.sender == creator);\n        _;\n    }\n\n    modifier isDepositor(){\n        require(msg.sender == depositor);\n        _;\n    }\n\n    function deposit_funds() public payable isDepositor{\n        require(msg.value == requestAmount);\n        uint256 amount = msg.value;\n        emit Deposited(msg.sender, amount);\n        emit NextAction(\"agree_upon_services_delievered\");\n    }\n\n     function agree_upon_services_delievered() public payable isDepositor{\n        finished = true;\n        emit FINISHED(finished);\n        emit NextAction(\"withdraw_and_terminate_contract\");\n    }\n\n    function withdraw_and_terminate_contract() public payable isOwner {\n        require(finished == true);\n        uint256 balance = address(this).balance;\n        address(creator).transfer(address(this).balance);\n        emit Withdrawn(creator, balance);\n        selfdestruct(depositor);\n    }\n\n    function cancel() public payable isOwner{\n        selfdestruct(depositor);\n    }\n\n    function get_balance() public view returns(uint256){\n        return address(this).balance;\n    }\n\n    function see_owner() public view returns(address){\n        return creator;\n    }\n\n    function see_depositor() public view returns(address){\n        return depositor;\n    }\n  }\n",
  "sourcePath": "/Users/Zack/Code/amber-contracts/contracts/serviceAgreement.sol",
  "compiler": {
    "name": "solc",
    "version": "0.5.0+commit.1d4f565a.Emscripten.clang"
  },
  "schemaVersion": "3.0.1",
  "updatedAt": "2019-03-09T17:56:08.931Z",
  "devdoc": {
    "methods": {}
  },
  "userdoc": {
    "methods": {}
  }
}